{
  "transactions": [
    {
      "hash": "0x30aa4a8cea13351fd1edf964ad7ff9645121222074b2ca9196c19fbef3b3cdd9",
      "transactionType": "CALL",
      "contractName": null,
      "contractAddress": "0xdb6b3d45ea9a77e5b14e30c570294be3eea802cd",
      "function": "createPoll(string,string[],uint256,uint256,uint256,address)",
      "arguments": [
        "Is Shuri a bozo?",
        "[Yes, Definitely, Mega Bozo]",
        "1758518204",
        "1761110204",
        "1000000000000000000",
        "0x697D4D5d5e1990710E558c7008C28d40af176651"
      ],
      "transaction": {
        "from": "0x697d4d5d5e1990710e558c7008c28d40af176651",
        "to": "0xdb6b3d45ea9a77e5b14e30c570294be3eea802cd",
        "gas": "0x54e08",
        "value": "0x0",
        "input": "0x8a2a7a2600000000000000000000000000000000000000000000000000000000000000c000000000000000000000000000000000000000000000000000000000000001000000000000000000000000000000000000000000000000000000000068d0dbbc0000000000000000000000000000000000000000000000000000000068f868bc0000000000000000000000000000000000000000000000000de0b6b3a7640000000000000000000000000000697d4d5d5e1990710e558c7008c28d40af17665100000000000000000000000000000000000000000000000000000000000000104973205368757269206120626f7a6f3f000000000000000000000000000000000000000000000000000000000000000000000000000000000000000000000003000000000000000000000000000000000000000000000000000000000000006000000000000000000000000000000000000000000000000000000000000000a000000000000000000000000000000000000000000000000000000000000000e000000000000000000000000000000000000000000000000000000000000000035965730000000000000000000000000000000000000000000000000000000000000000000000000000000000000000000000000000000000000000000000000a446566696e6974656c790000000000000000000000000000000000000000000000000000000000000000000000000000000000000000000000000000000000094d65676120426f7a6f0000000000000000000000000000000000000000000000",
        "nonce": "0xe",
        "chainId": "0x3e6"
      },
      "additionalContracts": [],
      "isFixedGasLimit": false
    }
  ],
  "receipts": [
    {
      "status": "0x1",
      "cumulativeGasUsed": "0x3a092",
      "logs": [
        {
          "address": "0xdb6b3d45ea9a77e5b14e30c570294be3eea802cd",
          "topics": [
            "0xab0309b6731a34e8750174d3c2c9591a34a2bf0c1425a30b34122be08d050739",
            "0x0000000000000000000000000000000000000000000000000000000000000001"
          ],
          "data": "0x",
          "blockHash": "0x8ce6732239adee31b5f62bd7e1bcb836f2287c096305a14bd671bd87b60fa1fc",
          "blockNumber": "0x1f6ffc8",
          "blockTimestamp": "0x68d0dbcc",
          "transactionHash": "0x30aa4a8cea13351fd1edf964ad7ff9645121222074b2ca9196c19fbef3b3cdd9",
          "transactionIndex": "0x0",
          "logIndex": "0x0",
          "removed": false
        }
      ],
      "logsBloom": "0x00000000000000000000000000000000000000000000000000000000000000020000000000000000000000000000000000008000000000000000000000040000000000000000000000000000000000000000000000040000002000000000000000000000000000000000000000000000000000000000000000000000000000000000000000000000000000000000000000000000000000000000000000000000000000000000000000000000000000000000000000002000000000000000000000000008000000000000000000000000000000000000000000000000000040000000000000000000008000000000000000000000000000000000000000000000",
      "type": "0x2",
      "transactionHash": "0x30aa4a8cea13351fd1edf964ad7ff9645121222074b2ca9196c19fbef3b3cdd9",
      "transactionIndex": "0x0",
      "blockHash": "0x8ce6732239adee31b5f62bd7e1bcb836f2287c096305a14bd671bd87b60fa1fc",
      "blockNumber": "0x1f6ffc8",
      "gasUsed": "0x3a092",
      "effectiveGasPrice": "0x5f5e101",
      "from": "0x697d4d5d5e1990710e558c7008c28d40af176651",
      "to": "0xdb6b3d45ea9a77e5b14e30c570294be3eea802cd",
      "contractAddress": null
    }
  ],
  "libraries": [],
  "pending": [],
  "returns": {},
  "timestamp": 1758518222179,
  "chain": 998,
  "commit": "25d9767"
}