{
  "transactions": [
    {
      "hash": "0x7a94329aa45621052aed0461f3f0501dd26f36d78be913fcf105ba8b0c74e79c",
      "transactionType": "CALL",
      "contractName": null,
      "contractAddress": "0xdb6b3d45ea9a77e5b14e30c570294be3eea802cd",
      "function": "createPoll(string,string[],uint256,uint256,uint256,address)",
      "arguments": [
        "Is Shuri a bozo?",
        "[Yes, Definitely, Mega Bozo]",
        "1758516126",
        "1761108126",
        "1000000000000000000",
        "0x697D4D5d5e1990710E558c7008C28d40af176651"
      ],
      "transaction": {
        "from": "0x697d4d5d5e1990710e558c7008c28d40af176651",
        "to": "0xdb6b3d45ea9a77e5b14e30c570294be3eea802cd",
        "gas": "0x55ed8",
        "value": "0x0",
        "input": "0x8a2a7a2600000000000000000000000000000000000000000000000000000000000000c000000000000000000000000000000000000000000000000000000000000001000000000000000000000000000000000000000000000000000000000068d0d39e0000000000000000000000000000000000000000000000000000000068f8609e0000000000000000000000000000000000000000000000000de0b6b3a7640000000000000000000000000000697d4d5d5e1990710e558c7008c28d40af17665100000000000000000000000000000000000000000000000000000000000000104973205368757269206120626f7a6f3f000000000000000000000000000000000000000000000000000000000000000000000000000000000000000000000003000000000000000000000000000000000000000000000000000000000000006000000000000000000000000000000000000000000000000000000000000000a000000000000000000000000000000000000000000000000000000000000000e000000000000000000000000000000000000000000000000000000000000000035965730000000000000000000000000000000000000000000000000000000000000000000000000000000000000000000000000000000000000000000000000a446566696e6974656c790000000000000000000000000000000000000000000000000000000000000000000000000000000000000000000000000000000000094d65676120426f7a6f0000000000000000000000000000000000000000000000",
        "nonce": "0xb",
        "chainId": "0x3e6"
      },
      "additionalContracts": [],
      "isFixedGasLimit": false
    }
  ],
  "receipts": [
    {
      "status": "0x1",
      "cumulativeGasUsed": "0x3e35e",
      "logs": [
        {
          "address": "0xdb6b3d45ea9a77e5b14e30c570294be3eea802cd",
          "topics": [
            "0xab0309b6731a34e8750174d3c2c9591a34a2bf0c1425a30b34122be08d050739",
            "0x0000000000000000000000000000000000000000000000000000000000000000"
          ],
          "data": "0x",
          "blockHash": "0xc1216925f31711756db2d454671ff7826a318dd5f087ede29a819da8ea960ad8",
          "blockNumber": "0x1f6f7af",
          "blockTimestamp": "0x68d0d3d4",
          "transactionHash": "0x7a94329aa45621052aed0461f3f0501dd26f36d78be913fcf105ba8b0c74e79c",
          "transactionIndex": "0x0",
          "logIndex": "0x0",
          "removed": false
        }
      ],
      "logsBloom": "0x00000000000000000000000000000000000000000000000000000000000000020000000000000000000000000000000000008000000000000000000000000000000000000000000000000000000000000000000000000000002000000000000000000000020000000000000000000800000000000000000000000000000000000000000000000000000000000000000000000000000000000000000000000000000000000000000000000000000000000000000000002000000000000000000000000008000000000000000000000000000000000000000000000000000020000000000000000000008000000000000000000000000000000000000000000000",
      "type": "0x2",
      "transactionHash": "0x7a94329aa45621052aed0461f3f0501dd26f36d78be913fcf105ba8b0c74e79c",
      "transactionIndex": "0x0",
      "blockHash": "0xc1216925f31711756db2d454671ff7826a318dd5f087ede29a819da8ea960ad8",
      "blockNumber": "0x1f6f7af",
      "gasUsed": "0x3e35e",
      "effectiveGasPrice": "0x5f5e101",
      "from": "0x697d4d5d5e1990710e558c7008c28d40af176651",
      "to": "0xdb6b3d45ea9a77e5b14e30c570294be3eea802cd",
      "contractAddress": null
    }
  ],
  "libraries": [],
  "pending": [],
  "returns": {},
  "timestamp": 1758516182456,
  "chain": 998,
  "commit": "87ca214"
}