{
  "transactions": [
    {
      "hash": "0xb78cc1a987d292cc4e5e7596f1b7ea26763e91ce11e65da590dafcb356ac9a1f",
      "transactionType": "CALL",
      "contractName": null,
      "contractAddress": "0x18659c4ead62af2ba3321c6190a0acb324360bc5",
      "function": "createPoll(string,string,uint256,uint256,uint256,address)",
      "arguments": [
        "Is Shuri a bozo? checking again?",
        "This poll aims to determine if Shuri is a bozo for a second time",
        "1758513582",
        "1761105582",
        "1000000000000000000",
        "0x697D4D5d5e1990710E558c7008C28d40af176651"
      ],
      "transaction": {
        "from": "0x697d4d5d5e1990710e558c7008c28d40af176651",
        "to": "0x18659c4ead62af2ba3321c6190a0acb324360bc5",
        "gas": "0x4ed83",
        "value": "0x0",
        "input": "0xf52dd56c00000000000000000000000000000000000000000000000000000000000000c000000000000000000000000000000000000000000000000000000000000001000000000000000000000000000000000000000000000000000000000068d0c9ae0000000000000000000000000000000000000000000000000000000068f856ae0000000000000000000000000000000000000000000000000de0b6b3a7640000000000000000000000000000697d4d5d5e1990710e558c7008c28d40af17665100000000000000000000000000000000000000000000000000000000000000204973205368757269206120626f7a6f3f20636865636b696e6720616761696e3f00000000000000000000000000000000000000000000000000000000000000405468697320706f6c6c2061696d7320746f2064657465726d696e65206966205368757269206973206120626f7a6f20666f722061207365636f6e642074696d65",
        "nonce": "0x8",
        "chainId": "0x3e6"
      },
      "additionalContracts": [],
      "isFixedGasLimit": false
    }
  ],
  "receipts": [
    {
      "status": "0x1",
      "cumulativeGasUsed": "0x39150",
      "logs": [
        {
          "address": "0x18659c4ead62af2ba3321c6190a0acb324360bc5",
          "topics": [
            "0xab0309b6731a34e8750174d3c2c9591a34a2bf0c1425a30b34122be08d050739",
            "0x0000000000000000000000000000000000000000000000000000000000000001"
          ],
          "data": "0x",
          "blockHash": "0xf5b6f40901d9df1c4dca7b0e396e9a613c8f3c2651c379c76f4d44af416f8213",
          "blockNumber": "0x1f6edc5",
          "blockTimestamp": "0x68d0c9c0",
          "transactionHash": "0xb78cc1a987d292cc4e5e7596f1b7ea26763e91ce11e65da590dafcb356ac9a1f",
          "transactionIndex": "0x0",
          "logIndex": "0x0",
          "removed": false
        }
      ],
      "logsBloom": "0x00000000000000000000000000000000000000000000000000000000000000020000000000000000000000000000000000000000000000000000800000040000000000000000000000000000000000000000000000040000000000000000000000000000000000000000000000000000000000000000000000000000000000000000000000000000000000000000000000000000000000000000000000000000000000000000000000000000000000000000000000000000000000000000000000000008000000000000000000010000000000000000000000000200000040000000000000000000008000000000000000000000000000000000000000000000",
      "type": "0x2",
      "transactionHash": "0xb78cc1a987d292cc4e5e7596f1b7ea26763e91ce11e65da590dafcb356ac9a1f",
      "transactionIndex": "0x0",
      "blockHash": "0xf5b6f40901d9df1c4dca7b0e396e9a613c8f3c2651c379c76f4d44af416f8213",
      "blockNumber": "0x1f6edc5",
      "gasUsed": "0x39150",
      "effectiveGasPrice": "0x5f5e101",
      "from": "0x697d4d5d5e1990710e558c7008c28d40af176651",
      "to": "0x18659c4ead62af2ba3321c6190a0acb324360bc5",
      "contractAddress": null
    }
  ],
  "libraries": [],
  "pending": [],
  "returns": {},
  "timestamp": 1758513603730,
  "chain": 998,
  "commit": "87ca214"
}