{
  "transactions": [
    {
      "hash": "0x18bf7e434a0ae4d470e41629cdeaa2426bb5258108c882dd6843c39dfce325ad",
      "transactionType": "CALL",
      "contractName": null,
      "contractAddress": "0x18659c4ead62af2ba3321c6190a0acb324360bc5",
      "function": "createPoll(string,string,uint256,uint256,uint256,address)",
      "arguments": [
        "Is Shuri a bozo?",
        "This poll aims to determine if Shuri is a bozo.",
        "1758513485",
        "1761105485",
        "1000000000000000000",
        "0x697D4D5d5e1990710E558c7008C28d40af176651"
      ],
      "transaction": {
        "from": "0x697d4d5d5e1990710e558c7008c28d40af176651",
        "to": "0x18659c4ead62af2ba3321c6190a0acb324360bc5",
        "gas": "0x4d081",
        "value": "0x0",
        "input": "0xf52dd56c00000000000000000000000000000000000000000000000000000000000000c000000000000000000000000000000000000000000000000000000000000001000000000000000000000000000000000000000000000000000000000068d0c94d0000000000000000000000000000000000000000000000000000000068f8564d0000000000000000000000000000000000000000000000000de0b6b3a7640000000000000000000000000000697d4d5d5e1990710e558c7008c28d40af17665100000000000000000000000000000000000000000000000000000000000000104973205368757269206120626f7a6f3f00000000000000000000000000000000000000000000000000000000000000000000000000000000000000000000002f5468697320706f6c6c2061696d7320746f2064657465726d696e65206966205368757269206973206120626f7a6f2e0000000000000000000000000000000000",
        "nonce": "0x7",
        "chainId": "0x3e6"
      },
      "additionalContracts": [],
      "isFixedGasLimit": false
    }
  ],
  "receipts": [
    {
      "status": "0x1",
      "cumulativeGasUsed": "0x37c50",
      "logs": [
        {
          "address": "0x18659c4ead62af2ba3321c6190a0acb324360bc5",
          "topics": [
            "0xab0309b6731a34e8750174d3c2c9591a34a2bf0c1425a30b34122be08d050739",
            "0x0000000000000000000000000000000000000000000000000000000000000000"
          ],
          "data": "0x",
          "blockHash": "0x5f218e6fec47d57c9bed850eae255c65c7315e970b6436829cd91482386b0d09",
          "blockNumber": "0x1f6ed88",
          "blockTimestamp": "0x68d0c984",
          "transactionHash": "0x18bf7e434a0ae4d470e41629cdeaa2426bb5258108c882dd6843c39dfce325ad",
          "transactionIndex": "0x0",
          "logIndex": "0x0",
          "removed": false
        }
      ],
      "logsBloom": "0x00000000000000000000000000000000000000000000000000000000000000020000000000000000000000000000000000000000000000000000800000000000000000000000000000000000000000000000000000000000000000000000000000000000020000000000000000000800000000000000000000000000000000000000000000000000000000000000000000000000000000000000000000000000000000000000000000000000000000000000000000000000000000000000000000000008000000000000000000010000000000000000000000000200000020000000000000000000008000000000000000000000000000000000000000000000",
      "type": "0x2",
      "transactionHash": "0x18bf7e434a0ae4d470e41629cdeaa2426bb5258108c882dd6843c39dfce325ad",
      "transactionIndex": "0x0",
      "blockHash": "0x5f218e6fec47d57c9bed850eae255c65c7315e970b6436829cd91482386b0d09",
      "blockNumber": "0x1f6ed88",
      "gasUsed": "0x37c50",
      "effectiveGasPrice": "0x5f5e101",
      "from": "0x697d4d5d5e1990710e558c7008c28d40af176651",
      "to": "0x18659c4ead62af2ba3321c6190a0acb324360bc5",
      "contractAddress": null
    }
  ],
  "libraries": [],
  "pending": [],
  "returns": {},
  "timestamp": 1758513542236,
  "chain": 998,
  "commit": "87ca214"
}