{
  "transactions": [
    {
      "hash": "0xc11ddf4b919d319b076bda51697a8d9f3bb1cc97fe70a9ba36cc42e324524140",
      "transactionType": "CALL",
      "contractName": null,
      "contractAddress": "0xdb6b3d45ea9a77e5b14e30c570294be3eea802cd",
      "function": "pushVotes(uint256,address[],uint256[])",
      "arguments": [
        "0",
        "[0x697D4D5d5e1990710E558c7008C28d40af176651, 0x697D4D5d5e1990710E558c7008C28d40af176651, 0x697d4d5d5e1990710e558c7008c28D40aF176652]",
        "[1, 1, 2]"
      ],
      "transaction": {
        "from": "0x697d4d5d5e1990710e558c7008c28d40af176651",
        "to": "0xdb6b3d45ea9a77e5b14e30c570294be3eea802cd",
        "gas": "0x422c4",
        "value": "0x0",
        "input": "0x3ccc705d0000000000000000000000000000000000000000000000000000000000000000000000000000000000000000000000000000000000000000000000000000006000000000000000000000000000000000000000000000000000000000000000e00000000000000000000000000000000000000000000000000000000000000003000000000000000000000000697d4d5d5e1990710e558c7008c28d40af176651000000000000000000000000697d4d5d5e1990710e558c7008c28d40af176651000000000000000000000000697d4d5d5e1990710e558c7008c28d40af1766520000000000000000000000000000000000000000000000000000000000000003000000000000000000000000000000000000000000000000000000000000000100000000000000000000000000000000000000000000000000000000000000010000000000000000000000000000000000000000000000000000000000000002",
        "nonce": "0xf",
        "chainId": "0x3e6"
      },
      "additionalContracts": [],
      "isFixedGasLimit": false
    }
  ],
  "receipts": [],
  "libraries": [],
  "pending": [
    "0xc11ddf4b919d319b076bda51697a8d9f3bb1cc97fe70a9ba36cc42e324524140"
  ],
  "returns": {},
  "timestamp": 1758518238152,
  "chain": 998,
  "commit": "25d9767"
}