{
  "transactions": [
    {
      "hash": "0x227e9ba1600217c854bb08ec24bbec3233460045b23a9ed4bf27c885056b60f5",
      "transactionType": "CALL",
      "contractName": null,
      "contractAddress": "0xdb6b3d45ea9a77e5b14e30c570294be3eea802cd",
      "function": "pushVotes(uint256,address[],uint256[])",
      "arguments": [
        "0",
        "[0x697D4D5d5e1990710E558c7008C28d40af176651, 0x697D4D5d5e1990710E558c7008C28d40af176651, 0x697d4d5d5e1990710e558c7008c28D40aF176652]",
        "[1, 1, 2]"
      ],
      "transaction": {
        "from": "0x697d4d5d5e1990710e558c7008c28d40af176651",
        "to": "0xdb6b3d45ea9a77e5b14e30c570294be3eea802cd",
        "gas": "0x4fcbc",
        "value": "0x0",
        "input": "0x3ccc705d0000000000000000000000000000000000000000000000000000000000000000000000000000000000000000000000000000000000000000000000000000006000000000000000000000000000000000000000000000000000000000000000e00000000000000000000000000000000000000000000000000000000000000003000000000000000000000000697d4d5d5e1990710e558c7008c28d40af176651000000000000000000000000697d4d5d5e1990710e558c7008c28d40af176651000000000000000000000000697d4d5d5e1990710e558c7008c28d40af1766520000000000000000000000000000000000000000000000000000000000000003000000000000000000000000000000000000000000000000000000000000000100000000000000000000000000000000000000000000000000000000000000010000000000000000000000000000000000000000000000000000000000000002",
        "nonce": "0xc",
        "chainId": "0x3e6"
      },
      "additionalContracts": [],
      "isFixedGasLimit": false
    }
  ],
  "receipts": [
    {
      "status": "0x1",
      "cumulativeGasUsed": "0x39c56",
      "logs": [
        {
          "address": "0xdb6b3d45ea9a77e5b14e30c570294be3eea802cd",
          "topics": [
            "0x8b7f604ded99b661db12cbf90378970c1d64d24d9a14577f28109fa1e3249cb9",
            "0x0000000000000000000000000000000000000000000000000000000000000000"
          ],
          "data": "0x000000000000000000000000000000000000000000000000000000000000004000000000000000000000000000000000000000000000000000000000000000c00000000000000000000000000000000000000000000000000000000000000003000000000000000000000000697d4d5d5e1990710e558c7008c28d40af176651000000000000000000000000697d4d5d5e1990710e558c7008c28d40af176651000000000000000000000000697d4d5d5e1990710e558c7008c28d40af1766520000000000000000000000000000000000000000000000000000000000000003000000000000000000000000000000000000000000000000000000000000000100000000000000000000000000000000000000000000000000000000000000010000000000000000000000000000000000000000000000000000000000000002",
          "blockHash": "0x3d26fc869e29a159e3085d39f358fb80e9515f842c4d06e7fe972a6709979be9",
          "blockNumber": "0x1f6f8a2",
          "blockTimestamp": "0x68d0d4c4",
          "transactionHash": "0x227e9ba1600217c854bb08ec24bbec3233460045b23a9ed4bf27c885056b60f5",
          "transactionIndex": "0x0",
          "logIndex": "0x0",
          "removed": false
        }
      ],
      "logsBloom": "0x00000000000000000000000000000000000000000000000008000000000000000000000000000000000000000000000000008000001000000000000000000000000000000000000000000000000000000000000000000000002000000000000000000000020000000000000000000800000000000000000000000000000000000000000000000000000000000000000000000000000000000000000000000000000000000000000000000000000000000000000000002000000000000000000000000002000000000000000000000000000000000000000000000000000020000000000000000000000000000000000000000000000000000000000000000000",
      "type": "0x2",
      "transactionHash": "0x227e9ba1600217c854bb08ec24bbec3233460045b23a9ed4bf27c885056b60f5",
      "transactionIndex": "0x0",
      "blockHash": "0x3d26fc869e29a159e3085d39f358fb80e9515f842c4d06e7fe972a6709979be9",
      "blockNumber": "0x1f6f8a2",
      "gasUsed": "0x39c56",
      "effectiveGasPrice": "0x5f5e101",
      "from": "0x697d4d5d5e1990710e558c7008c28d40af176651",
      "to": "0xdb6b3d45ea9a77e5b14e30c570294be3eea802cd",
      "contractAddress": null
    }
  ],
  "libraries": [],
  "pending": [],
  "returns": {},
  "timestamp": 1758516424283,
  "chain": 998,
  "commit": "87ca214"
}